:10400000E01A0020E56F02007D730000817300005C
:10401000A70A0A010042000004180FAC5066CC0049
:104020000000000000000000000000000000000090
:1040300000000000087D03000000000000000000F8
:104040000000000000000000FFFFFFFFFFFFFFFF78
:10405000FFFFFFFF00600F000000000000000000F5
:10406000FFFFFFFFFFFFFFFF8000000000000000D8
:104070000000000000000000000000000000000040
:1040800000000000000000000C4C00200C4C002040
:10409000E01A00205CC70300544E0300801100208A
:0C40A0004C11002000E00F0000000000A8
:10420000E01A0020E56F02007D730000817300005A
:1042100089730000857300008D730000E16F020058
:10422000E16F0200E16F0200E16F0200E16F020046
:1042300091730000E16F0200E16F0200E16F020084
:10424000047400000474000004740000047400008E
:1042500004740000459000003D9D000004740000BF
:104260000474000004740000058E00000474000053
:10427000047400000474000004740000047400005E
:10428000047400000474000004740000E16F020074
:1042900004740000758700000474000004740000BA
:1042A00004740000758800004D880000047400004C
:1042B00004740000047400000474000099C6020035
:1042C00025C6020021C60200BDBF020095C602003D
:1042D00029C6020049C602002DC6020031B0020004
:1042E000DDC6020004740000047400003D77000085
:1042F000047400000474000004740000E16F020004
:1043000004740000047400000474000004740000CD
:1043100004740000047400000474000004740000BD
:1043200004740000047400000474000004740000AD
:044330000474000011
:10433400F8B500BFF8BC08BC9E467047F8B500BF8E
:10434400F8BC08BC9E46704710B5054C237833B9B9
:10435400044B13B1044800E000BF0123237010BDD7
:104364005021002000000000E4C0030008B5034B06
:104374001BB10349034800E000BF08BD0000000072
:1043840054210020E4C00300154B002B08BF134B3D
:104394009D46A3F5803A00218B460F461348144AE4
:1043A400121A30F043FD0F4B002B00D098470E4BF0
:1043B400002B00D098470020002104000D000D4878
:1043C400002802D00C4800E000BF30F0F1FC2000CF
:1043D40029000BF02BFE30F0D7FC00BF00000800D2
:1043E400E01A00200000000000000000502100201E
:1043F4000C4C002000000000000000001FB5012349
:104404000022009306210DF10F030DF09DFF20B94A
:104414009DF80F3023B103F005F805B05DF804FBF7
:1044240003F014F8F9E700000022024B01201A708F
:1044340002F0F8BF983600200022024B01201A70C7
:1044440003F004B898360020002370B5264D274E9B
:104454002C4633702B78012B02D0022B25D070BD53
:104464006B88002BFBD0B3F5F07F15D10CF0E6FC84
:10447400022808D119F02EF928B1BDE870401C4972
:104484000D200FF08BB91B490D200FF087F94FF465
:10449400FA61194816F0B2F9012002F0EBFF6388C3
:1044A4006168013B6380114809E06B885BB10120BE
:1044B40002F0E0FF30466B886968013B6B80BDE821
:1044C400704016F09BB90CF0B9FC022803D119F026
:1044D40001F90028D1D10123FA2123704FF4F0739C
:1044E40061606380DFE700BF7421002098360020FC
:1044F400E34F0300FA4F03007036002007B5002293
:10450400064B1A7009F0E0FB054B0090054A06497A
:1045140001200FF043F903B05DF804FB703600206E
:10452400B2690300CA4F0300CF4F030008B522F05D
:1045340023FE134B58601B68C01A41F2883398421B
:104544000CD101220F4BFA211A704FF4F07259600A
:104554005A800D48BDE8084016F050B942F2107375
:1045640098420BD10022094B4FF47A711A7002223F
:10457400044B1A70042259605A80EAE708BD00BF50
:104584006C21002074210020983600207836002009
:10459400F8B50024154B1C70154B1C7022F0ECFD73
:1045A400144A13681460C01A41F2223365389842E1
:1045B4001AD80CF043FC0124831E5F420E4E0F4DAB
:1045C4005F41214601233A46022001F0B3FA013447
:1045D400002814BF33462B46094A0A490120E4B295
:1045E4000FF0DCF8042CECD1F8BD00BF78360020C5
:1045F400903600206C2100201E500300235003003D
:1046040026500300525003007047000008B50CF018
:1046140015FC02280CD10022064B01201A7006F06A
:104624008BFEBDE808400246034901200FF0B6B8EE
:1046340008BD00BF80360020A94F0300912808B5AB
:1046440004D1002002F002FF002008BD9028FBD115
:10465400002002F0E7FE024816F0C4F8F4E700BFB9
:10466400803600207047000013B5044600900C4BC0
:104674000C4A0D4901200FF091F864B1FFF7D4FE04
:1046840009F022FB094B0090064A074901200FF06C
:1046940085F802B010BD02B0BDE81040FFF7CCBEF3
:1046A400A04F0300CA4F0300CF4F0300B2690300B9
:1046B400FFF7A4BE09B9FFF7A1BE7047012908B5E9
:1046C40009D1022806D1084816F08CF822F054FDCE
:1046D400064B186008BD0029FCD10228FAD1BDE8B8
:1046E4000840034816F07EB8783600206C2100207C
:1046F4009036002038B5C37B05460BB1832038BD06
:10470400C47C2CB901F00EFD20B9EB7B002BF5D154
:104714008120F4E72046F2E7C37B10B504460BB1D1
:10472400832010BDC37C1BB1012B10D08120F8E77E
:10473400017D82898B1C9A420CD380680EF088FB21
:1047440008F092FB40B9E37B002BE9D1EEE708F0D7
:10475400A3FBF7E78020E4E70020E2E7F8B5C37B9A
:1047640004460BB18320F8BDC37C052B29D8DFE8B0
:1047740003F0032A35414C4F057D8289AB1C9A42D4
:1047840001D28020EFE7ADB2294680680EF060FBCD
:104794000646A06802352844A7890EF071FB284418
:1047A40001308742EDD32946A289A0680EF056FB5A
:1047B4000146304608F0B4F8002848D1E37B002BCA
:1047C400D0D18120CFE7017D82898B1C9A42D8D336
:1047D40080680EF03DFB08F0C3F8EDE7037D8189A6
:1047E4005A1C9142CDD38268591C1144D05C08F004
:1047F400E7F8E1E7017D82898B1C9A42C1D3806886
:104804000EF026FB08F05EF9D6E708F0B7F9D3E717
:10481400057D8289AB1C9A42B3D3ADB22946806828
:104824000EF016FB0646A06802352844A7890EF050
:1048340027FB284401308742A3D32946A289A068D4
:104844000EF00CFB0146304608F0E0F9B4E7002016
:1048540089E7C37B2DE9F7430446002B40F0BA8077
:10486400C37C062B00F2B880DFE803F0044A5A6ADE
:104874007585A800057D8289AB1C9A4203D28020ED
:1048840003B0BDE8F083ADB2294680680EF0E0FACB
:10489400A289E91C8A42064605F10203EFD3881C6B
:1048A4008242ECD3A0680535C75C0EF0D1FA80468D
:1048B400A068B4F80C9028440EF0E2FA28440130C1
:1048C4008145DCD32946A289A0680EF0C7FA814647
:1048D400A06828440EF0D4FA01300544A0684B4681
:1048E40010FA85F500954246394630460AF096FEA0
:1048F400002873D1E37B002B14BF83208120BFE702
:10490400057D8289EB1C9A42B9D3ADB229468068F1
:104914000EF09EFAA3680235595D0AF0F3FEE7E74C
:10492400057D8289EB1C9A42A9D3ADB229468068E1
:104934000EF08EFAA3680235595D0AF017FBD7E72B
:10494400017D82898B1C9A4299D380680EF080FA8B
:104954000AF07AFBCCE7057D8289EB1C9A428ED360
:10496400ADB2294680680EF073FAA3680235595D2A
:104974000AF0BCFCBCE7057D8289AB1C9A42FFF4BB
:104984007EAFADB2294680680EF062FAA289E91CB6
:104994008A42064605F10203FFF471AFA068C75CC2
:1049A4008B1C9A4207D30EF053FA0246394630461E
:1049B4000AF0FAFC9CE74FF6FF72F7E7017D828963
:1049C4008B1C9A42FFF45BAF80680EF041FA0AF048
:1049D400A5FB8DE7832053E7812051E700204FE7B3
:1049E400C37B10B504460BB1832010BDC37C012BDF
:1049F4000BD003D3022B0BD08120F6E709F036FB52
:104A040048B9E37B002BEFD1F6E709F03FFBF7E76A
:104A140009F04CFBF4E70020E7E72DE9F04FC37BF6
:104A24008FB004461BB183200FB0BDE8F08FC37C68
:104A34000B2B4DD8DFE813F00C00550030014C006F
:104A44004C004C0057014C004C004C00C401D801F0
:104A5400037D8289581C824234BF4FF0FF08A0684E
:104A640099B224BF10F80380013118F0070509D169
:104A74000F1DBA422FD3A0680EF0E4F90646B9B26E
:104A8400FF2711E0022D25D101F108039A42C0F05D
:104A9400DF81A5680D4499B24B1C9A421BD34FF099
:104AA400FF36A268575C99B2A2890B1D9A4215D3AE
:104AB400A0680EF0C7F900903B462A4631464046AE
:104AC40006F0C2FE002840F0C181E37B002BAAD18E
:104AD4008120A9E700254FF0FF36D1E74FF0FF30E2
:104AE400E9E7037D82899DB203339A4218D32946AC
:104AF40080680EF0AAF90646033516F0070712D1AE
:104B0400A28905F104084245C0F0AD802946A06899
:104B14000EF098F983461FFA88F54FF0FF0A18E063
:104B24004FF0FF36E9E7022F40F09C80A28905F19F
:104B340008039A42C0F08E81A7682F449DB26B1C73
:104B44009A42C0F090804FF0FF3BA26812F805A093
:104B54009DB216F0100340F0898016F0600903D06E
:104B6400B9F1600F40F07B81A28905F108039A42F4
:104B7400C0F07281A168294409919DB2B9F1000F76
:104B840003D0B9F1600F40F06B81AB1C9A42C0F0C6
:104B94006C812946A0680A930EF05AF980460A9B54
:104BA4009DB2B9F1200F02D0B9F1400F62D1A289B0
:104BB400AB1C9A420A935DD32946A0680EF048F9CB
:104BC40081460A9B9DB206F01803082B55D1A28991
:104BD4006B1C9A4251D3A268525D9DB20A92710431
:104BE4004ED5A2892B1D9A424AD32946A0680C931C
:104BF4000EF028F90C9B0B909DB216F4004344D0A0
:104C0400A28905F110039A423ED3A2682A440C9269
:104C14009DB2F2033BD5A289AB1C9A4237D32946F5
:104C2400A0680D930EF014F90D9B9DB2B30331D51A
:104C3400A2896B1C9A422DD3A3685B5DCDE9060360
:104C44000C9BCDF8048005930B9B3A4604930A9B76
:104C54005946CDE90293099B30460093534606F02A
:104C6400F5FD2FE700274FF0FF3B56E700234FF6F3
:104C7400FF7809934FF6FF79A5E7FF230A93AEE780
:104C84004FF0FF330B93B8E700230C93C1E74FF6C3
:104C9400FF70CBE7FF23D1E7017D8289481C824264
:104CA40034BFFF25A0688BB224BF455C0133A9073C
:104CB40014D59E1CB24211D31946A0680EF0C8F850
:104CC4000146B3B2EA060CD5A0895A1C904208D317
:104CD400A268D25C284606F075FDF3E64FF6FF7134
:104CE400F0E7FF22F6E7037D8289591C8A429DB2D0
:104CF40028BF0135806805F102062CBF10F8038037
:104D04004FF0FF08B24234D329460EF0A1F8814691
:104D1400B5B2A2896B1CA0689A422ABF10F805A0FC
:104D24004FF0FF0A9DB218F0070625D105F1040BD8
:104D34005A4531D329460EF085F807461FFA8BF5FC
:104D44004FF0FF0BA289691C8A4238BFFF23A06879
:104D540032BF0993435D8DB2284428BF09930A9258
:104D64000EF08EF80A9A28440130824217D280202D
:104D74005AE64FF6FF79CCE7022E0CD105F1080371
:104D84009A4270D346199DB210F805B00135ADB200
:104D94004FF0FF37D6E700264FF0FF37D0E7A28960
:104DA4002946A0680EF05AF8099B0390CDE901B397
:104DB40000963B4652464946404606F0DDFD81E6F4
:104DC400007DA289031D9A42D1D3A56886B2F31C43
:104DD400B21C711C0436EB5CAA5C695C285C35442B
:104DE400009506F087FE6DE6037D8289591C8A4290
:104DF400BDD380689FB2C65C791C16F01F0504D130
:104E04000EF020F8791D002206E0022D1BD1421875
:104E14004FF0FF3007F1090106F00703022B01BF31
:104E2400A3684D1C5B5CA9B206F0180518BFFF23EC
:104E3400082D12BFFF25A5686D5C0146009530461C
:104E440006F046FF3EE64FF0FF30DCE70020EBE5DE
:104E5400002521E6002772E6002309938EE60993D4
:104E64004FF6FF789DE600268EE7B9F1200F4FF646
:104E7400FF787FF499AEFDE638B5C37B0446002B7A
:104E8400437D14BF8325C325012B1AD10368028AED
:104E9400598858790CF0EEFC98B123685B880A2B8A
:104EA40003D0212B08D0032B02D1E37B13B183253C
:104EB400284638BD8125FBE72046BDE83840FFF78A
:104EC400ACBD637D002BF3D12368228A59885879BD
:104ED4000CF0C7FC0028EBD023685B88042B12D0AD
:104EE40007D85BB1032BE3D12046BDE83840FFF778
:104EF40013BC062B11D00BD3192BD5E72046BDE8E4
:104F04003840FFF7F7BB2046BDE83840FFF726BC22
:104F14002046BDE83840FFF79CBC2046BDE8384039
:104F2400FFF75EBD704701207047012070470120E4
:104F3400704770470020704700207047002070477A
:104F44000020704700207047002070470120704700
:104F540001207047B520704700207047002070473B
:104F640000207047002070477047002070470020E1
:104F740070477047002070470020704784207047B6
:104F840070477047704770477047002070477047FC
:104F9400704770470020704700207047034B1B6820
:104FA4001878012808BF0220704700BFFC2E00209B
:104FB4000020704703460120024AC3E9032000226F
:104FC4001A7070470100FEFF7047002070470020F0
:104FD4007047002070470020704700207047002071
:104FE400704700207047002070477047B520704715
:104FF40000207047002070477047002070477047BA
:105004007047B5207047704770477047002070475D
:10501400704770470023FF21084A137082F87830E4
:1050240082F8653082F8773082F8793082F87A1025
:1050340082F87B30024A1360704700BF7C21002055
:10504400A0360020F8B50D468C680A680646284943
:10505400202003F01AF96B687BB92649202003F05D
:1050640014F920200AF0DAFB2349202003F022F966
:10507400BDE8F84020200AF0D1BB002EF1D01F4D2E
:105084001F4E204F013C14F8013F23B91A49202038
:1050940003F010F9E5E7752B18D0762B18D0772B91
:1050A40018D0732B18D0722B18D0712B18D0622BF8
:1050B40018D06E2B18D02A2B18D01349134A212B41
:1050C40018BF1146202003F0E0F8DCE72946F9E791
:1050D4003146F7E73946F5E70D49F3E70D49F1E7BE
:1050E4000D49EFE70D49EDE70D49EBE70D49E9E718
:1050F400066E0300ED5003009E500300AB50030006
:105104009F500300B6500300F7500300F45003000F
:10511400C2500300CC500300D7500300E2500300F8
:10512400EC500300F1500300F0B50026204A92F839
:105134007B30184452FA80F090F865C090F86650BD
:1051440030461C4BA5EB0C051F78EDB2F4B2A5421A
:1051540025D90CEB060313445B7811B10CB92D2B44
:1051640017D0782B1FD0582B05D108B137240AE06B
:10517400013C012C14D9602B17D8402BF6D83A2BBC
:1051840034BF302400241B1BDBB29F4203D900FB35
:1051940007300136DAE70523002082F87930F0BDC4
:1051A40010270020F5E70028E2D05724EBE700BFE2
:1051B4007C210020E81A0020FFF72CBF034B93F852
:1051C400770093F87B30C01AC0B270477C2100206E
:1051D4000021FFF7A9BF000010B50A4B93F87B200C
:1051E400024453FA82F292F8652013445C78A4F1E5
:1051F4002D0359425941FFF797FF2D2C08BF404218
:1052040010BD00BF7C21002030B50C4A92F87B30E1
:105214000344C043DBB2C00F39B1D51895F86640DA
:1052240095F86550641B241A0C7042FA83F393F8C2
:1052340065301844024B184430BD00BF7C21002067
:105244007D210020F7B515460E460DF107011C46D9
:10525400FFF7DAFF9DF807300746AB4288BF8DF8A9
:1052640007501CB19DF807402C1BE4B2224630467F
:10527400002100F079FB30199DF80720394600F031
:1052840017FB9DF8070003B0F0BD38B50C460123A9
:105294000822FFF7D7FF04F10803621E043413F851
:1052A400011D12F8015FA3421D701170F7D138BDC2
:1052B40038B5054601460120FFF7C4FED5E9014390
:1052C4006CB91C46084D236863B12946202002F0BE
:1052D400DCFF21460020FFF7B5FE0C34F3E71B7812
:1052E4006E2BEFD038BD00BFD999030008B504492F
:1052F400202002F0CAFFBDE8084020200AF08EBA40
:105304005F50030038B5FFF7F1FF0024054D611924
:105314000C34631953F80C3C03B938BD0020FFF773
:1053240091FEF4E7A85F03002DE9F84F1F4B204DD1
:1053340053F820201F49202002F0A7FF2B681BB937
:10534400BDE8F84FFFF7DEBF1B4FFFF7CFFF002686
:10535400B946DFF86CA097F87B30F4B2013B9C426D
:1053640004DB2868BDE8F84FFFF7A2BF47FA86F3CD
:1053740093F8658000234C44C84494F8662094F85C
:10538400651003F1010B521ADBB2D2B2934205D37A
:105394000A49202002F079FF0136DCE743445A78B9
:1053A4005146202002F071FF5B46E6E7EC1A00202C
:1053B400A03600205A5003007C210020DA99030013
:1053C400F56E03002DE9F74F884C94F87730002BE5
:1053D40000F0A180864B671C1B7813F0010F1FD0CF
:1053E4000025844E14E0631993F8662093F8653021
:1053F4002020D21A44FA85F393F86510D2B23944C6
:105404000AF007FA3146202002F03FFF0135EDB2E1
:1054140094F87730AB42E6D87749202002F035FF84
:10542400002694F87730DFF8DCE10193734B4FF0FA
:1054340000094D469EF800801EF801CFB8441EF8BE
:10544400012CACEB020C5FFA8CFC1868002852D0DB
:105454000138C24619E02AB9002D4AD04FF001099B
:105464000C33F2E71AF8011BA1F1410BBBF1190F40
:1054740098BF2031A2F1410B98BFC9B2BBF1190FFB
:105484009CBF2032D2B28A42EAD1AAEB080161451C
:1054940010F8012FDFD1002ADED11D46584B01360A
:1054A4001D6094F87B30F6B2013384F87B30D5E983
:1054B4000123002A35D01B786E2B31D03F2B23D00B
:1054C4004FF000094FF0070BC846042394F87710F7
:1054D400AA68B14212F808702BD8AFB1904498F87A
:1054E40001302A2B10D0212F1CBF032384F87930DC
:1054F4000AE01D46B4E7B9F1000F01D1002DCDD16A
:105504000223002584F8793094F87900002869D1C1
:1055140068680DF06BF903B0BDE8F04FFFF77ABD92
:105524001346019AB24282D803221D4684F8792098
:10553400EAE7732F09D8712F0BD2212F1FD0622FC6
:105544003CD0002F4BD1032246E0A7F17502022A7A
:1055540045D8752F29D0762F2AD0732F2BD0722FB0
:1055640047F6FF7A18BF4FF0FF3A012148460193EE
:10557400FFF7DAFD5045019B01D984F87930AA6818
:10558400424452782A2A94F879201CBF08F1010871
:105594005FFA88F8002AB7D1212F1FBF013609F11D
:1055A4000109F6B25FFA89F990E74FF0FF0ADCE7E8
:1055B4004FF6FF7AD9E74FF07F0AD6E794F87B20BD
:1055C4004A4454FA82F292F8652022445278222AFC
:1055D400D5D07B2AD3D0052284F87920CFE784F86C
:1055E40079B0CCE7FFF7A0FE95E700BF7C2100204F
:1055F400F8210020DA9903009C500300A85F0300FF
:10560400A0360020E12100202DE9F34106460D4695
:105614004FF000085C4C5D4F66B90DF10701284658
:105624000AF0F2F878B1262800F0A980012384F862
:1056340079304BE0002D00F0A28016F8013B013DCB
:105644008DF80730EDB23A789DF807300D2A3B709B
:1056540001D10A2BE0D00D2B0CD0A3F10A02514248
:10566400514122788846042AD6D8DFE802F0051D85
:10567400263C31000121F4E721B1FFF7A3FE4FF0EE
:105684000108C9E7202B63D0222B07D10223237002
:1056940094F87820642A5DD10623C8E77B2B01D1D6
:1056A4000323F4E70123F2E709B9202BF0D194F89E
:1056B4007730112B3FD10323B9E7222BF7D00029F0
:1056C400E6D005234FF0010884F8793004232370D1
:1056D400B8F1000FA0D094F8790008B1FFF724FEC8
:1056E400FFF798FC98E77D2B94F87A0003D1FF2804
:1056F400DDD005239BE7602B13D8402B13D8392B1F
:105704008CBF002230229A1AD2B20F2A10D8FF2856
:105714000BD0FF2302EB00128DF8072084F87A30B7
:10572400B6E75722EFE73722EDE784F87A2073E7EC
:10573400202BDED170E70133DBB294F8782084F8B3
:105744007730234483F8652000232370002994D103
:10575400884661E72378012B09D19DF80730A3F12E
:10576400410119299CBF2033DBB28DF807309DF825
:105774000710A3180132597084F878204CE740468A
:1057840002B0BDE8F08100BF7C210020F921002097
:1057940049BA89B24840C0F303114140080380B2BA
:1057A4004840C3B280EA4310704710F063BF7047AB
:1057B400704770477047704770477047704770472D
:1057C40070477047704700207047704770477047B4
:1057D400002070477047704700207047704770473B
:1057E40070470020704770470120704701207047C0
:1057F40070477047704770477047704770470000A4
:105804002DE9F0470024204DDFF89C90DFF89CA0A0
:105814005FFA84F8404614F0E9FDFF2806460CD1EF
:1058240022461A49287802F045FD2878013409F007
:10583400F5FF142CECD1BDE8F087154B47B213EA01
:10584400270338BF534659F824201249287802F018
:1058540031FD002FE9DA14B1B8F1030F08D10E4B72
:1058640016F0010F0D49287818BF194602F022FDE1
:105874000A2CDAD10A4B16F0010F0A49287818BF0E
:10588400194602F017FDD0E7611E002015520300EF
:105894009E5003003D520300D8510300EE51030013
:1058A400005203000A52030084510300309803009D
:1058B4008842F0B54FEA92031AD804460D469BB2CB
:1058C4009E00871904370434BC4205F104053AD11B
:1058D400C3EB8333314402EB8303013E304411FABA
:1058E40083F3994220D011F8012B00F8012FF8E737
:1058F400541E204421440D4604469BB2A0EB83066B
:10590400043E043CB442A5F104050ED16FF0030437
:105914005C43C3EB833302EB830321449BB2013426
:105924002044CB1A994209D1F0BD2F792771EF7821
:10593400E770AF78A7706F786770E2E711F8012914
:1059440000F8012DEEE715F804CC04F804CC15F8A2
:1059540003CC04F803CC15F802CC04F802CC15F8F7
:1059640001CC04F801CCAEE70244904200D1704768
:1059740000F8011BF9E710B5013801390AB91046DE
:1059840006E010F8014F11F8013F9C4201D0E01AE3
:1059940010BD013A92B2F1E782B2074B4AB1000C52
:1059A4001A8008BF4FF6CE22044B14BF18801A8009
:1059B40070474BF6EF62F2E7C01B0020C21B0020C9
:1059C400094B1888020448BF80F0620042001A8024
:1059D400064A1388190444BF83F4805383F00B03ED
:1059E4005900118058407047C01B0020C21B002082
:1059F4000022034B1870034B1970034B1A70704745
:105A0400032200200222002004220020022807D0C2
:105A1400032808D0012809D13221054814F0EEBE2C
:105A240064210448FAE796210348F7E7704700BF6A
:105A3400EC360020D4360020E4360020F0B50022F5
:105A4400012787B00DF113030093CDE901724023C0
:105A5400062105460CF06AFC044640B103462A467A
:105A6400124902200DF09AFE204607B0F0BD102323
:105A74008DF8163004239DF81360019305AB0A22B8
:105A8400ADF8140000930621094B08208DF8176027
:105A94000CF012FE394628460CF0A0FE21462046A2
:105AA4000CF078FE33462A460249DAE73A580300F6
:105AB400AA680300575803000022024B01201A7001
:105AC400FFF7BCBFEC3600200022024B02201A7004
:105AD400FFF7B4BFD43600200022024B03201A7013
:105AE400FFF7ACBFE436002070470139012810B538
:105AF400CCB20DD003D3022813D0002010BD204611
:105B040002F0E4F8002CF8D1204601F09FFCF4E701
:105B1400204602F0C7F8002CEFD1204601F082FCA9
:105B2400EBE7204602F0E6F8002CE6D1204601F02F
:105B3400A1FCE2E7F0B5174687B006460D461A46C3
:105B4400002B58D0012912D0012000220DF1170397
:105B54000093CDE90102402306210CF0E7FB044643
:105B640028B102463C4902200DF018FE18E001233A
:105B74000022CDE901320DF11503009306214023E3
:105B840028460CF0D3FB044610B122463349EAE719
:105B94009DF815303BB946B9314902200DF0FEFDA0
:105BA400204607B0F0BD012EF6D083F001028DF837
:105BB40016209DF817209A4208D129463046FFF74F
:105BC40094FF044610B122462649CCE717B1284673
:105BD400FFF71CFF102301930DF11603009300221D
:105BE4004023062128460CF03EFB04460028D7D06B
:105BF40002461D49B7E70293012301930DF11603F1
:105C040000930621402328460CF090FB044600280C
:105C1400BBD19DF81630DBB9002EBDD083F0010353
:105C24008DF8173032462B46104902200DF0B6FD90
:105C340029463046FFF759FF04460028C3D117B15F
:105C44002846FFF7E3FE102301930DF11703C5E780
:105C5400012EE3D1A0E700BF675703009457030068
:105C6400AB570300CB570300EA5703000158030066
:105C7400024B187800F07F00704700BF0522002017
:105C8400034B18780130C0B2187000F07F007047E1
:105C9400052200201FB5030A8DF80E30032300935C
:105CA40003AB8DF80D0000F0BFF905B05DF804FBFF
:105CB4001FB58DF80F100421030A8DF80E300091E2
:105CC40003AB8DF80D0000F0AFF905B05DF804FBEF
:105CD4002DE9F043994689B0BDF840509DF84460E1
:105CE400074688460DF1090011460822BDF84C40CC
:105CF400FFF7DEFD8DF81250012E4FEA15258DF8C1
:105D040011908DF813508DF8146017D0032E1CD108
:105D1400082212990DF11500FFF7CAFD9DF85030C5
:105D24008DF81D3016230093BDF8542002AB414674
:105D3400384600F079F909B0BDE8F0838DF81540D4
:105D4400240A8DF816400F23EDE70120F3E71FB571
:105D54000C46194602238DF80D2000930A4603AB26
:105D64000146204600F060F904B010BD70B586B05D
:105D7400044616460DF10D0008221D46FFF798FD56
:105D84000A232A460093342103AB20468DF815607C
:105D940000F04AF906B070BD30B5002485B0ADF806
:105DA4000A20021D92B2012A1D46ADF80840ADF842
:105DB4000610ADF8044003D94FF6FF72904207D1A4
:105DC400064A2B46127801A91BF082F805B030BDB3
:105DD400014601AA20461BF041F9F7E7C41B002045
:105DE4002DE9F74F9846FF2A16BF474B00241B683E
:105DF4000E4618BF9C5C814618BF6408B8F1FF0FBB
:105E040016BF414B00271B6815461CBF13F80870CA
:105E14007F08FFF735FF4FEA19238DF800008DF84E
:105E240003600621360A68468DF804608DF80190F7
:105E34008DF802308DF8054015F042F8FF2806462B
:105E440004D11824204603B0BDE8F08F4FEA440B78
:105E54000BF1070A0AEB4701C9B214F0E5FF002869
:105E6400EFD10446A3451BD10BF106013A4601F0DC
:105E7400FE0130465FFA8AF415F09DF84FF0000AEF
:105E84005FFA8AF5AF4223D83346BDF830200621A5
:105E94004846FFF781FF0446304614F0B3FED1E7CD
:105EA4002146284615F082F8A11D0246C9B23046A3
:105EB40015F081F8611CC9B2284615F077F8E11D88
:105EC4000246C9B23046023415F075F8E4B2C9E7A7
:105ED4006D00EDB22946404615F068F821460246A9
:105EE400304615F068F8691CC9B2404615F05EF8F2
:105EF400611C0246C9B23046023415F05CF80AF15E
:105F0400010AE4B2BCE700BF641B00202DE9F041A4
:105F140088B00F4602A906460BF05EF800287CD034
:105F2400FFF7AEFE8DF8100014F0FAFB8DF81100A7
:105F340014F0F6FB000A8DF81200082239490DF11D
:105F44001300FFF7B5FCBDF808300F218DF81C30A5
:105F54001B0A8DF81D309DF80D3004A88DF81B60C8
:105F64008DF81E3014F0ACFFFF28044657D04FF0D4
:105F740000089DF80D305FFA88F2934208F1010899
:105F84001DD801220DF10E01204614F0DBFF4FF065
:105F940000089DF80E305FFA88F2934208F1010878
:105FA40024D823463A4620210020FFF7F5FE054673
:105FB400204614F027FE284608B0BDE8F0810021F1
:105FC40030460BF035F805468DF807000DF1070152
:105FD4000122204614F0B6FF2D0A01220DF107011B
:105FE40020468DF8075014F0ADFFC2E7012130467A
:105FF4000BF01EF805468DF807000DF1070101228C
:10600400204614F09FFF2D0A01220DF107012046BE
:106014008DF8075014F096FFBBE7A325CBE71825AE
:10602400C9E700BF894A0020F8B51C460E4617464A
:106034000546FFF725FE9DF818102070204614F041
:106044003FFFFF2804460BD003463A462846314614
:10605400FFF7A2FE0546204614F0D4FD2846F8BDFD
:106064001825FBE708B5FEF7FDFABDE808400EF079
:106074003DBC08B5FEF77DFF0EF066FCBDE80840A8
:1060840006F080BE7047FEF7A4BFFEF7A8BF30B489
:10609400BDF80840BDF80C50CDE9024530BC05F010
:1060A400E1BE38B504460D46FEF7B2FF2946204648
:1060B400BDE8384009F0F6BFFEF793BFFEF79DBF79
:1060C4004022032101200FF0CDB801220321104604
:1060D4000FF0C8B80022032101200FF0C3B8022238
:1060E400032101200FF0BEB80122002109200FF086
:1060F400B9B8002307B5CDE90033012369464FF051
:10610400FF308DF8023021F0B1FB003018BF0120C0
:1061140003B05DF804FB01207047012070470120A3
:106124007047000010B5084C23681B6858790BF0C1
:10613400A0FD23681B685879FEF723FF00200EF0AA
:1061440077FD012010BD00BF244900202DE9F84F40
:1061540080460D4614469946164E06F1010A0DB9BD
:10616400BDE8F88F102D4FF00D02494650462F46DA
:1061740028BF1027FFF79CFB0123337000230D4831
:10618400F473B3731CF07EFE424601340A495FFA8D
:1061940087FBE4B212F8013B11F8010F434002F807
:1061A400013CA2EB0803DBB25B45F3D3ED1BADB2BC
:1061B4009046D4E70A220020092200202DE9F04F5E
:1061C4004FF00209364D85B003930F9B174601909B
:1061D4000D220E460146681CBDF838800293FFF775
:1061E40067FB49234C46AA462B7028464FEA1823DE
:1061F400AB7385F80F801CF045FE2B7883EA1723D8
:106204002B706B787B406B704FF0000B21E0C4F176
:10621400100CA7EB0B031FFA8CFC9BB2634528BF41
:1062240063463046A11B00EB010C5FFA8CF2A0EB35
:10623400060C1FFA8CFC9C451BD31C44E4B29B4403
:10624400102C1E441FFA8BFB03D128461CF01AFEA7
:106254000024BB45DBD314B150461CF013FEB9F146
:10626400010F4FF00004039E47460BD04FF0010985
:10627400CAE710F801CB1AF802E08CEA0E0C0AF80F
:1062840002C0D0E7029804220549FFF711FB224619
:106294000421019B029805B0BDE8F04FFFF756BFFB
:1062A4000A220020F7B5099FBDF820400646CDE933
:1062B40000471D46FFF782FF2CB1334601222146D9
:1062C4002846FFF743FF002003B0F0BD2DE9F74354
:1062D4001E46054688469146BDF828700D4C034677
:1062E400394630460122FFF731FF33464A464146DC
:1062F4002846CDE90074FFF761FF042221460B987C
:10630400FFF739FB002814BF7E20002003B0BDE84E
:10631400F08300BF062200202DE9F3410C46154608
:106324001E468046084F9918214438460422FFF738
:10633400BFFACDE9006763192A4621464046FFF7B4
:10634400C5FF02B0BDE8F0811A220020002070478A
:106354000020704770477047F7B50024094E0A4F74
:106364000A4D56F8243003B93B6835F8142008491F
:1063740000920120224601340DF010FA292CF0D1AC
:1063840003B0F0BDC81B0020701C0020683700203B
:10639400306A030008B5FFF7DFFFBDE8084000F0EE
:1063A400EFB8000007B50020FEF712FFC2B2282A9A
:1063B4000DD8084B53F822300BB9074B1B6807491B
:1063C400012031F81210009105490DF0E7F903B0EE
:1063D4005DF804FBC81B0020701C002068370020F7
:1063E400306A0300FFF7B8BF7047000038B50020DB
:1063F400FEF7EEFE04460120FEF7EAFE05460549D7
:1064040001200DF0CBF9A9B2E0B2BDE8384000F0AC
:10641400CFB800BF3B6A0300F7B50024094E0A4F0A
:106424000A4D56F8243003B93B6835F8142008495E
:1064340000920120224601340DF0B0F9292CF0D14C
:1064440003B0F0BDC81B0020701C002016370020CC
:10645400306A030073B502AB03E906000446019DEC
:1064640013F0B4FE0646204613F0BEFE9DF800006D
:106474008EB1202C0FD82B78012B36D84FF6FF7510
:10648400384903EB4313234431F81320AA4202D0C2
:10649400013221F813204FF6FF71334B334A33F89E
:1064A400145032F814608D421CBF691C23F8141078
:1064B40004F0FD01092930D1998A928A014491425C
:1064C40035DA998233F81430B34204D3B54202D298
:1064D4002046FEF757FD0025254BEA5CA24228D052
:1064E4000135112DF9D102B070BD022BD3D14FF675
:1064F400FF714FF6FF751B4B33F814208A421CBF03
:10650400013223F8142004F1210133F81120AA42A6
:106514001CBF013223F81120BDE71D2CD2D1598FA5
:106524000144508F814201DA5987CBE7928A9A82DB
:10653400C8E729F0FAFC0F4B04461B78834203D8C2
:10654400E0210D4800F046FB4FF6FF710B4A04EBC7
:1065540004142C4432F814308B42C4D0013322F892
:106564001430C0E7BA3700206837002016370020FF
:106574003E6D0300A51B0020236D0300F4360020AC
:10658400522200210148FFF7EFB900BF683700200D
:106594005222FF210148FFF7E7B900BF1637002058
:1065A40008B5FFF7EDFFBDE80840FFF7F1BF0000B5
:1065B400014B23F81010704716370020032310B541
:1065C4000F4C1022C4E904330E4B0F49E36100233E
:1065D400A16121660D49E01DC4E919120C49A362A9
:1065E4006362E3622367E366636722622EF026FC3C
:1065F400084920462EF022FC2023A37110BD00BFC1
:10660400003C00202E2200204F6D03001E2200209B
:10661400586D03005C6D03002DE9F84F1F4B1646BF
:106624001A7881468A4698460AB9FFF7C7FF1827A1
:1066340007FB09873D6FD7F86CB05D452BD9BC6E5D
:10664400796E641BB44228BF34462944504622461E
:106654002EF0E1FBBB6E2544AB4208BF0025A244EB
:10666400361BABEB050B5E4528BF5E4656B11823BF
:1066740003FB0983596E3246294450462EF0CBFB66
:106684003444354424B1182303FB0988C8F87050F6
:106694002046BDE8F88F0024E3E700BF003C00205B
:1066A400F8B504460E46174603F0DBFF3A460546A6
:1066B40031462046FFF7B0FF0446284603F0D7FFD3
:1066C4002046F8BD2DE9F843124D1E462B7881462D
:1066D400884617460BB9FFF771FF03F0C2FF002489
:1066E4004FF0180C69690CFB04535A6E2AB101343B
:1066F400A142F8DC4FF0FF3407E0A142FADDC3E920
:1067040018989F661A67DA665E6703F0B0FF204642
:10671400BDE8F883003C0020FFF750BF70B54FF090
:1067240060441A4B00261A68194D42F001021A609F
:10673400DA680C2042F08072DA60164BC4F8B03F7D
:106744000223C4F8006EC4F8806EC5F8F03003F07C
:10675400B1FC114B00F5D52000F2FC40B0FBF3F086
:106764000E4A0F4B01382861C4F8406E1A600D4B75
:10677400C4F8803E4FF48073C5F80433D4F8003E67
:1067840043F48073C4F8003E70BD00BFF0ED00E038
:10679400000004E055CEACC5F8590D00FF030040DD
:1067A400001000E00D00010010B501240E4B002084
:1067B4001C6003F0F3FF234604220321002004F0AD
:1067C40035F820462AF080F9FFF7A8FF2AF07DF972
:1067D400FFF7A2FF2346402204490548FFF772FF52
:1067E400044B1860C00F10BD44D403403E22002067
:1067F400636D0300741C0020024B1868003018BF3E
:1068040001207047F0ED00E0D123054A03701378AE
:106814004170090A8170591CC370117004207047BB
:106824007E2200202DE9F74F354E074633681C5C65
:10683400032C63D9DFF8CC8020F0A5FC4FF6FF7A57
:106844000025C1460534E4B20190D8F800204AB1CD
:10685400AC4207D920F097FC019BC01A80B2B0F576
:10686400FA7F05D9601B18BF012003B0BDE8F08F83
:10687400002D3DD0012D1DD14FF0020B3268D55DA6
:106884004FF06042D2F8801ECB0711D51146D9F8DB
:106894000C0040F08070C9F80C00D1F8000E40F4F0
:1068A4008070C1F8000E086A0028F0D082F82050E9
:1068B4005D46CAE7E21E05F1010B95425FFA8BFBC8
:1068C40002D15FFA8AF5DBE7A21E954202D1CAF330
:1068D4000725D5E7621E95420ED0A91EC9B23846D7
:1068E40014F064FB51460546FEF752FF8246C7E7A3
:1068F4005B254FF0010BC3E75D25C1E70120B4E739
:10690400641B0020F0ED00E010B50B4B90B040226A
:1069140069461868FFF7C4FE58B1C1B2684614F05E
:10692400CFFA0446014612202AF04EF8204614F00D
:1069340069F910B010BD00BF741C002010B5002010
:1069440090B0FEF745FC40226946044600F024F965
:10695400034630B12246064901200CF01FFF10B057
:1069640010BD0122694608200CF0AAFEF7E700BF1B
:10697400736D030010B500F093F8002814BF79225A
:106984006E22144901200CF009FF00F089F8F8B1D7
:1069940000F016F9002814BF79226E220E49012056
:1069A4000CF0FCFE02220D4901200CF0F7FE0C4B0A
:1069B4000C491C1F53F8042C01200CF0EFFE04F1C9
:1069C4001003E26807490120BDE810400CF0E6BE60
:1069D4003F22E3E7E16E0300F86E0300086F030053
:1069E400AC3C0020276F030070B500F07FF804462C
:1069F4001F4901200CF0D2FE2CB9BDE870401D499E
:106A040001200CF0CBBE00F079F8054622691A4942
:106A1400012026880CF0C2FE6288184901200CF07F
:106A2400BDFE1749A28801200CF0B8FE6388E288F5
:106A340013F0100F14BF1349134901200CF0AEFEDC
:106A4400A268124901200CF0A9FEE2681049012055
:106A54000CF0A4FE0F4A104B1049B6F5817F28BFF5
:106A6400134601202A46BDE870400CF097BE00BFD3
:106A7400BD6D0300CA6D0300EB6D0300096E0300D6
:106A84002A6E0300476E0300646E0300826E0300E7
:106A9400A06E0300AB6D0300B56D0300BE6E030072
:106AA400034B1878012894BF00200120704700BFD1
:106AB4007F22002038B50446044D2878A04203D034
:106AC4002146FEF760FA2C7038BD00BF7F220020FB
:106AD400054B1B7820B1012B04D80220FFF7EABF35
:106AE400012BFBD8704700BF7F22002008B500F0BF
:106AF40019F8BDE8084004F0A9BB000010B5084C23
:106B0400237853B9FFF7F2FF0123237028B10388D8
:106B1400B3F5817F24BF037D2370207810BD00BFAF
:106B24008022002038B5164B1B78012B27D804F09F
:106B34006BFB144C0246144901200CF02FFE01207B
:106B4400FFF7C6FF2578FF2D19D104F07FFBA8B10C
:106B540043881822C3F3400329460C482370FEF7E8
:106B640003FF2378012B0AD1FFF7C8FF042806D9B5
:106B7400BDE83840D921064800F02CB8207038BD53
:106B84007F220020781C00204A6F0300A83C0020CC
:106B94005C6F0300FFF7C6BF70B504460D4616468A
:106BA400FFF7C0FF0420FFF785FF32462946204641
:106BB40004F082FB04460220FFF77CFF204670BDF0
:106BC40008B5FFF7AFFFBDE8084004F084BB42DE20
:106BD4007047000038B504460D4600F0DFFD03F0B1
:106BE40038FD2946204629F0BBFE2B46224605499E
:106BF400012008F019FE29462046BDE83840FFF779
:106C0400E6BF00BF6F6F03006D4B2DE9F0415A687A
:106C14006C4CA2655A6AE2656B4AD2F8001221668E
:106C2400D2F8042262669A6AA266DA6AE2661A6B8B
:106C340022675A6B6267A26BDB6B12F0040FA367C7
:106C4400D4E90F5318BF1D4620F08AFA002285426A
:106C54000346606522655DD35C4A95425AD8AA69A9
:106C64006264E969A164B4F85810C1F30801062903
:106C740054D157498A4251D356498A424ED2118837
:106C84004DF64262914249D140F201706268C4F803
:106C94009420A268C4F898204F4A5049934238BFC0
:106CA40013460A468B423CD3D31AE3640023C4E957
:106CB4001F33C4E92133C4E92333484E444FDFF87A
:106CC40014C1AE4233D8D4E91FC7D4E92165D4E94D
:106CD40023124FF0000E013BDBB2FF2B42D1BEF179
:106CE400000F05D0C4E91FC7C4E92165C4E9231214
:106CF400B4F85830C3F30803052B57D03CD8032B02
:106D040047D0042B58D040F60722013B4B2B98BFA9
:106D1400104640E000221D46C4E911224FF42060D1
:106D2400BAE71E68B6F1CD3FBED10433BAE756F8D0
:106D3400042DBA42C5D36245C3D2D107C1D50021BF
:106D440004EB010EDEF87CE09645BAD00431182934
:106D5400F6D10BB9052301E0013BDBB204EB83015F
:106D6400CA67AEE7E0464FF0010EBC4637462E46F2
:106D74000D4611464246AEE70C2B1AD03B2B0CD0E5
:106D8400062BC0D140F60423B0F5206F08BF184687
:106D940001E040F60120BDE8F081114B9B6913F03E
:106DA400020F40F2025318BF1846F4E740F60320DE
:106DB400F1E740F60520EEE740F60220EBE700BFDE
:106DC40000ED00E00000002000E100E0C01A002017
:106DD4004C430000544E03009C000020E01A0020A5
:106DE4000080014A07B501F013FD002301220221AE
:106DF400032003F01BFD0749022001F017FD0123C6
:106E04000222CDE900331146032003F0C9FC03B08C
:106E14005DF804FB716E000002280ABF014B0020DC
:106E24001878704781220020022804BF014B197092
:106E3400704700BF81220020022805D1034A13783D
:106E4400B3FA83F35B091370704700BF81220020FB
:106E5400022809BF044B002018686FEA900008BF9D
:106E640000F00100704700BFA4C0034010B5044601
:106E7400FFF7EEFF0022014601E0002219462046FA
:106E8400FFF7E6FF88420346F7D10132052AF2D123
:106E94002046FFF7C1FF8842204609D0FFF7C4FF10
:106EA4002046FFF7B9FF0146204609F019FF10BD3F
:106EB400FFF7C2FFFFF7B0FF0146204609F010FFBD
:106EC4002046FFF7B9FFEBE710B503F0E1FD0446F8
:106ED40003F0D6FD0022012101FA02F3234014D06D
:106EE4001B4B33F812301B4A062B13D040F20721F8
:106EF4008B420DD1184919480C68844208D14CF2D0
:106F04003C334B800B88138012E00132102AE3D10A
:106F1400104AF8E74FF20F010F4B5888884214D1FA
:106F24001988B1F5406F10D211804CF23C325A806E
:106F3400084B1A8840F201739A4201BF084B094A70
:106F4400D2E90001C3E9000110BD4FF4C061EBE7D1
:106F5400826F03008C2200200000002007020FF043
:106F64008422002094000020014B1888000A7047F6
:106F74008C220020014B1888704700BF8C2200200F
:106F84002DE9F04F4D4C0546A36BD4F850B05A0789
:106F940047BF0027B846D4F84CB0D4F85480D4F88E
:106FA40040A05DBF464FD4F83CA0DFF83C91DFF829
:106FB4003C9113F0080F434B434A18BF1A46B7EBF2
:106FC40008061FBF6421730801FB0B33B3FBF6F300
:106FD40087B01CBF9BB205933C494B46CDE9017A6F
:106FE400CDF8008008BF059601F064F9B3B2CDE98D
:106FF40000931FFA8BF2059B3549284601F05AF994
:10700400A36B5B070AD49C3E5E4507D1626D314B8E
:107014009A4203D23049284601F04CF9BA4501D8C6
:10702400C24504D24A462D49284601F043F9284670
:1070340008F0F4FB236E0BB9636EBBB328492846F2
:1070440001F023F900260127DFF8A480DFF8A490DB
:10705400226E07FA06F3134207D058F82620137855
:107064001BB14946284601F010F90136202EEFD114
:1070740000260127DFF87880DFF87890626E07FA3F
:1070840006F3134209D008EB8603D3F88020137863
:107094001BB14946284601F0F8F80136092EEDD116
:1070A400284607B0BDE8F04F01F0FEB828460D4968
:1070B40007B0BDE8F04F01F0FDB800BF00000020AC
:1070C400E01A00208B720300927203009A7203008C
:1070D400C87203009C000020017303002D73030099
:1070E4004B7303007A730300867203007A870300EC
:1070F40090730300056E03002DE9F8430446FFF77F
:1071040039FF40F60123984239D010D840F2025397
:1071140098421DD040F20173984224D040F20153AA
:10712400984213D16549204601F0C4F822E040F6A4
:10713400032398426CD03DD340F60423984200F0D8
:107144009C8040F60523984200F0B580BDE8F883A2
:107154005B49204601F0AEF85A4B5B495A6C204615
:1071640001F0A8F806E0574A5849D2E925232046F9
:1071740001F0A0F82046BDE8F84308F04FBB514D9C
:107184005349204601F096F895F86C309F0703D5D3
:107194005049204601F08EF895F86F305E0603D50D
:1071A4004D49204601F086F895F96F30002BE1DA5D
:1071B4004A49B8E7434D4A49204601F07BF895F81F
:1071C4006830980704D06A6C3F49204601F072F891
:1071D40095F96830002B04DA6A6F4249204601F0C1
:1071E40069F800260127DFF80881DFF81491AA6EF8
:1071F40007FA06F3134207D058F8262013781BB178
:107204004946204601F056F80136082EEFD1B1E781
:107214002C4D3549204601F04DF82B496A6C204627
:1072240001F048F895F86930590703D52F492046ED
:1072340001F040F895F96930002B04DA6A6F2949A6
:10724400204601F037F80826294FDFF8B480AB6EEA
:10725400F340DA0707D557F8262013781BB14146C7
:10726400204601F027F80136102EF0D195F8683049
:10727400002B7FF47FAF1F4955E7124D1E4920466E
:1072840001F018F86A6C1049204601F013F8102632
:10729400174FDFF86C80AB6EF340DB0707D557F868
:1072A400262013781BB14146204601F003F801362D
:1072B4001A2EF0D15EE711494BE700BF15700300A9
:1072C4005270030000000020827003009B700300D2
:1072D400B5700300CD700300077103003A71030019
:1072E400767103009B710300BF710300D671030024
:1072F400A46F03001C7203004C7203006572030048
:10730400B77103002DE9F84F06460025154C164FBA
:10731400DFF85C80DFF85CA023785FFA85FB0BB9AB
:10732400BDE8F88F57F8043B22461049304600F078
:10733400ACFF227804F1010982B9627882B10BF0C2
:10734400030103290CBF41465146304600F09DFF1E
:10735400304608F063FA01354C46DDE74C46E8E771
:107364004146F2E734740300040000200C7003006B
:107374009C500300E28A030000F00CB800F00AB845
:1073840000F008B800F006B800F004B800F002B845
:1073940000F000B872B61EF0080F09D01EF0040FFA
:1073A4000DD0DFF850E0AEE8FF1F6FF002000CE0F4
:1073B400DFF840E0AEE8FF1F6FF00E0005E0DFF8F5
:1073C40034E0AEE8FF1F6FF006006946EFF3098270
:1073D4008EE8070086460848084C854501D3A54534
:1073E40001D384F30888FFF70FFC84F308881FF0A7
:1073F40093FE000004000020C0110020E01A0020C9
:10740400FFF7C6BF002310B519460422012003F07C
:107414000DFABDE81040012100230422084603F0C0
:1074240005BA0000084A12F8301002EBC002536893
:1074340001229A4030234B4341F2100103F180436F
:1074440003F570335A507047687A0300084A12F8FB
:10745400301002EBC002536801229A4030234B43A0
:1074640042F2100103F1804303F570335A50704720
:10747400687A0300084A12F8301002EBC00253681D
:1074840001229A4030234B4343F2100103F180431D
:1074940003F570335A507047687A03007047000050
:1074A40037B57F2A14BF154600254BF2346291424A
:1074B400044619D17F2241F2020168460823FFF7EE
:1074C400EFFF082225496846FEF755FA30B908232C
:1074D4007F2241F2F0116846FFF7E2FF0822694675
:1074E4002046FEF7E5F909E041F2F01291421AD183
:1074F4001B4901388A6CC96C1D1F0BB903B030BD20
:10750400013B9D4200F8012F4FEA1222F5D10022DF
:1075140003349A42F2D00132042A04F8011F4FEADC
:107524001121F6D1EAE701F47042B2F5805F07D188
:10753400C1F30B0404F17E649AB203FB0541D0E766
:1075440001F46042B2F5005FD8D1C1F30B040549E0
:107554009AB2214403FB0511C3E700BF9D7A0300DF
:107564000080E00F00E00F0070B5054616461C468B
:10757400DBB14BF23463994210D1082C28BF0824A4
:107584007F2241F202012346FFF78AFFA2B2074994
:107594002846FEF7F0F940B941F2F011234632468D
:1075A4002846BDE87040FFF77BBF70BD9D7A03009D
:1075B4002DE9F04F0E46C10785B00446154603D5A4
:1075C40094215A48FFF706FBEA0703D5952157484B
:1075D400FFF700FB04F47049B9F5805F62D1C4F38E
:1075E4000B0404F17E646B1E514A23449342A24669
:1075F40003D99A214D48FFF7EDFA4C4B0AEB050BE2
:10760400D34562D114F0030311D0A4F1020802346B
:10761400A30703D0BC214548FFF7DCFA4FF6FF73FC
:1076240036F8022B023D43EA02430293012315F08C
:10763400030A0BD0023D25F00102B25A4FF0010AB1
:107644006FEA02426FEA124267190392B9F5805F4A
:1076540046D153B1042202A9C8F30B0003F0B2FAD5
:1076640018B1E2213148FFF7B5FA55B12A4631463F
:10767400C4F30B0003F0A6FA18B1E9212B48FFF775
:10768400A9FABAF1000F0AD0042203A9C7F30B0028
:1076940003F098FA18B1F0212448FFF79BFA05B0DB
:1076A400BDE8F08F04F46043B3F5005F05D1214BCE
:1076B400C4F30B041C44A2469FE7A1211B48FFF717
:1076C40089FA6FF00F0A002497E71AF8012BFF2AB2
:1076D40096D01846AB210193FFF77CFA019B8FE704
:1076E4005BB1012202A940461FF0C4FC10F0FF0F59
:1076F40003D0F6210D48FFF76DFA4DB16A08314603
:1077040020461FF083FC18B1FF210848FFF762FAF6
:10771400BAF1000FC3D0012203A938461FF0AAFC16
:1077240010F0FF0FBBD040F20511B5E7887A0300D3
:10773400FF1FE00F00E00F00FFF71EBE1FB5144A45
:1077440001AB10685168128903C31A8001238DF8B4
:1077540004300D238DF80A3003230E4C0821232016
:107764008DF80B3002F0CCFD01A9204603F05BFC40
:107774004FF40061022342F21800074AC2F8841150
:107784002350516041F21C02A35004B010BD00BF4D
:10779400A57A03000080014A00E100E0014803F0FB
:1077A40031BC00BF0080014AA52803D10021024852
:1077B40003F019BC704700BF0080014A024B5868AF
:1077C40000F00100704700BF0080014A024A536A7A
:1077D400002BFCD1704700BF0080014A0020704795
:1077E400002070477047000007B572B602F031FF01
:1077F400864B87495B6940228B6000230B764B766E
:107804008B76F023CB760B774B778B77CA778022F6
:1078140081F8202081F82130E023602081F8223093
:107824007C4B81F8232083F8002383F8012383F819
:10783400022383F8032383F8042383F8052383F8BE
:10784400062383F8072383F8082383F8092383F89E
:107854000A2383F80B2383F80C2383F80D2383F87E
:107864000E2383F80F2383F8102383F8112383F85E
:10787400122383F8132383F8142383F8152383F83E
:10788400162383F8172383F8182383F8192383F81E
:107894001A2383F81B2383F81C2383F81D2383F8FE
:1078A4001E2383F81F2383F8202383F82103202039
:1078B40083F8222383F8232383F8242383F82523BE
:1078C40083F8262383F8272383F8282383F829239E
:1078D40083F82A2383F82B0383F82C0383F82D23BE
:1078E40083F82E2383F82F2383F8302383F831235E
:1078F40083F8322383F8332383F8342383F835233E
:1079040083F8362383F8372383F8382383F839231D
:1079140083F83A2383F83B2383F83C23CB6823F48E
:10792400E0631B041B0C43F0BF6343F40133CB60DF
:107934004B6943F010034B614FF4E0234B62FFF7B4
:10794400C3FAEFF308834FF0CD31334A043B93423B
:1079540058D2324A002192B23148FEF705F862B695
:10796400684603F057F92F4B9B6DDB0318D42E4A5E
:10797400136823F4FF0323F4FE4343F4BC1343F4DA
:10798400A063136052F8043C23F4704343F440436F
:1079940042F8043C52F8043C43F4E06342F8043CEB
:1079A4009DF80130012B0FD19DF8003063B94FF0E1
:1079B40000531B681D4B1B681D4B1B681D4B1B682C
:1079C4001D4B1B681D4B1B6802224FF040231A6796
:1079D40005F05CF901F04CF801F0C2FA00230093C1
:1079E4008DF80430012368468DF8033002F0CDFE93
:1079F40000F026F91FF0D4FB11481FF031FC03B04E
:107A04005DF804FB1960043BA1E700BF00400000DF
:107A140000ED00E000E100E080110020AC10000067
:107A2400A000002000C0004034C0004000400020FE
:107A34000080002000C00020000001200040012040
:107A4400D4A3030040F201601FF066BBFEF782BCC2
:107A540008B500210B20FEF77BFCBDE80840FEF7CB
:107A64007ABC032000F0BABA08B5FFF77DFA044BDC
:107A74000B289ABF00B203EB8000184608BD00BF74
:107A8400F67B030008B5FFF775FA044BC0F30F2229
:107A940053F82230C0B203EB800008BDC07B030062
:107AA40010B5FFF761FA0446FFF764FAC0B228B9CB
:107AB400012C24D164F07F04E4B216E0072CF9D839
:107AC40001A353F824F000BFEF7A0000B97A000054
:107AD400ED7A0000F37A0000F37A0000F77A0000F0
:107AE400FB7A0000FF7A00000924204610BD02241E
:107AF400FBE70324F9E70B24F7E70624F5E704463C
:107B0400F3E700BF07282DE9F84F04460F462DD0B0
:107B1400082808BF022421460120FDF77AFAFFF75E
:107B24004DFE651ED5F1000848EB050800B3012C95
:107B34001ED1A520FFF738FE2646EFF31089012356
:107B440083F31088EFF3118A4FF0000B8BF3118845
:107B5400354D404608F088F8631EC5F800B0042B84
:107B640059D8DFE803F00E4D4D5155000324D2E7F8
:107B7400FFF724FE18B1FFF729FE0026DDE70646CD
:107B8400DBE72A4A136923F00403136130BF284A50
:107B9400D2F82434D2F8202413409BB2254A2B6017
:107BA400D2F80011480102D51168490106D4D2F86F
:107BB4000011880105D51268910102D543F4803380
:107BC4002B601C4BD3F80021520506D51B685B05BE
:107BD40042BF2B6843F400332B601EB101211648C9
:107BE40003F001FA404608F05FF8CFB18AF3118838
:107BF40089F310882146BDE8F84F0020FDF709BA43
:107C0400012002F095FDC2E7012002F0A5FDBEE7C8
:107C140002F0A4FDBBE784210848FEF7DBFFB6E7CA
:107C240087F31088E6E700BF9822002000ED00E00B
:107C340000C0034000E100E00080014A267C03000C
:107C440042F22041044AD2F820341B0C1B04535046
:107C5400024A1360704700BF00C003409422002012
:107C64000021FFF74FBFFFF7FBBF00004FF4807305
:107C740073B5ADF8043002230024094D8DF80630A5
:107C840001AEA05D002305EBC0010422496815F88C
:107C94003000013402F0CAFD032CF2D102B070BDF1
:107CA400407C0300084A12F8301002EBC00253680B
:107CB40001229A4030234B4341F2100103F18043E7
:107CC40003F570335A507047407C0300084A12F899
:107CD400301002EBC002536801229A4030234B4318
:107CE40042F2100103F1804303F570335A50704798
:107CF400407C0300084A12F8301002EBC0025368BB
:107D040001229A4030234B4343F2100103F1804394
:107D140003F570335A507047407C03002DE9F04F4F
:107D240089B028F049F80746002840F0DD806F4EFE
:107D34006F4D3168286827F07FFA0446002827D061
:107D440033683C46D3E900019A6912689047336866
:107D540004A89B699B689847336802209B69DB6889
:107D64009847326805985368E7B2B3FBF0F3BB4217
:107D7400916904F1010442D8CB6800209847336824
:107D84009B695B6898473168286827F055FA044670
:107D94000026DFF88891002C53D1564B4FEA860811
:107DA400F35C002B31D1A246534BF35C0193534B4C
:107DB40003EB080B019B5FFA8AF7BB42286853D890
:107DC4004F4BF35C002B3CD04C4B019F9844FBB2CF
:107DD4007E2B286835D8D8F8003003AA07EB030AAD
:107DE400514602AB27F062FC48452AD05146286828
:107DF40027F0A2FC013704460028E8D021E01268ED
:107E04000B6907FB00209847ABE73C4B03AA53F8E8
:107E14002670286802AB394627F048FC484507D04D
:107E240078B9039B012B0CD03946286827F084FCD1
:107E3400344B394653F8083028681A6827F060FB39
:107E440004460136272EA6D1B4FA84F32E4A5B09E0
:107E540013702E4B9C4241D02DD8002C32D0013BC4
:107E64009C423FD0C5242DE0DBF8003003AA1F4418
:107E7400394602AB27F01AFC48450AD010B10AF182
:107E8400010A97E7039B8BB9214B029AF35C9A4250
:107E9400F5D01F4B1B4A9B5D52F8082039462868D1
:107EA40027F0A0FA0028EAD0044689E73946286872
:107EB40027F042FCEDE7174B9C4211D004339C425F
:107EC400D0D1C1242B681B7C23B14FF48971124893
:107ED400FEF780FE204609B0BDE8F08FC324F1E729
:107EE400C424EFE7C224EDE7C624F3E7D01C002046
:107EF400CC1C00205456030090550300A4560300E4
:107F04007B560300B85503009C22002002E000F0D9
:107F14004057030004E000F0587C03000BE000F03D
:107F2400FF2970B506460D4614461AD80F4A127832
:107F3400DAB10F4A10680F4A52F821100E4A525D06
:107F44003AB1324627F02AFB78B1BDE87040FDF71C
:107F54002EBC7F2C08BF00243246214427F08CFA23
:107F6400F2E7BDE87040FFF7FFBA70BD9C22002025
:107F7400CC1C0020A456030054560300FF28F8B577
:107F840005460C46164619D810490978E1B110493E
:107F9400104F0868104951F825107D5D3DB11268F5
:107FA40027F0AEFA80B1BDE8F840FDF700BC7F2CA5
:107FB40008BF0024214427F015FAF3E71A46314696
:107FC400BDE8F840FFF7F4BAF8BD00BF9C220020DA
:107FD400CC1C002054560300A456030008B5084BDB
:107FE4001B7863B1074B002253F82010064B186826
:107FF40027F014FB18B1BDE80840FDF7D8BB08BD55
:108004009C220020A4560300CC1C002070B5164608
:1080140085180AB9304470BD01F00F030A2B34BF30
:1080240030243724013A2344090905F8013DD2B22A
:10803400EFE70000F0B5F9B100281CDA2D23B0F108
:10804400004F137000D04042012115E0801B86428E
:10805400ECB205F10105F9D904B927B101274D1C8A
:1080640030345454E9B20133092B09D1303050541F
:108074000131C8B2F0BD002100231F46DFF808C05B
:108084005CF823600025E2E76C7C03002DE9F04FE7
:108094004FF0000B95B002AC81468A4617461D4648
:1080A4005E46A0463B7863B902ABE41AE4B22246CA
:1080B40019465046C847002840F093803444E0B243
:1080C40090E0252B13D0BBF1000F14D123700134A1
:1080D40012AB9C426DD3A4EB0804E4B222464146A1
:1080E4005046C84700287CD12644F6B260E0BBF174
:1080F400000F00D101373B78632B00F092801BD82E
:10810400392B09D8302B80F09E80002BCCD0252B26
:1081140051D04FF0000BDBE7582B00F08B80622B23
:10812400F7D14FF0000B2B6801936B680093009B11
:108134009B4543D10835ECE7702B1ED017D8642B30
:1081440001D06C2BE5D16C2B05F1040B28686CD1A4
:108154007B78752B14BF0121002101D0642B00D141
:1081640001372246FFF766FF04445D46D1E7752BCD
:10817400E9D0782B5ED0732BCBD1A4EB0804E4B206
:10818400224602A9504605F1040B2D68C84740BB9E
:108194002644F6B2C4B22B5D0130002BFAD122463C
:1081A40029465046C847E0B95D4683462644F6B2A0
:1081B4004446013776E723700134AAE7019B204641
:1081C40013F80B100222FFF721FF12AB984204466A
:1081D4000ED3A0EB0804E4B2224641465046C847F9
:1081E40018B1002015B0BDE8F08F26444446F6B21D
:1081F400009B013B5B4582BF20232370013412ABFB
:108204009C420BD3A4EB0804E4B2224641465046F8
:10821400C8470028E5D126444446F6B20BF1010BC9
:1082240085E72B6804352370C6E7752B0CBF002146
:10823400012196E7204602222978FFF7E7FE05F19F
:10824400040B044691E77A7802F0DF02582A19D128
:10825400322B07F1010B09D10422204629882F1D56
:10826400FFF7D4FE3D4604465F4652E7342B09D15E
:108274002F1D2D680422290C2046FFF7C7FE042277
:10828400A9B2EDE74FF0010B22E70EB403B503AA40
:1082940052F8041B019207F0A9FDC0B202B05DF8C8
:1082A40004EB03B0704700000149FFF7EEBF00BFC5
:1082B4009C5003000EB433B505AA52F8041B0546BE
:1082C400019207F093FD04462846FFF7EDFFE0B264
:1082D40002B0BDE8304003B0704708B507F086FD32
:1082E400C0B208BD2DE9F04F9B46584B85B01B78B2
:1082F400064689461546109F9DF844A0DDF8508037
:10830400002B00F09280072A00F291800E9B002B34
:1083140000F08D800F9B002B00F08980129BB3F539
:10832400006F00F38480012801D1002F7FD0484BD7
:1083340003EB05131B7B002B7BD0464C1022002142
:1083440068462CF073FD04EB45141022B9F1000FBC
:108354005CD1494620462CF069FDA37843F0100314
:10836400A370E37843F03003E370BAF1000F03D154
:10837400DBB243F00303E37036496A01129B885A67
:10838400013B63F30E100E9B01EB020C8852CCF8F8
:1083940008300F9B9DF84C10CCF804309CF8033047
:1083A400012E61F38303CDF800B08CF8033042D181
:1083B40013230CF1100ECCF80C309CE80F008EE85F
:1083C4000F006FF00301DCF81C20B9F1010F61F319
:1083D4009F02CCF81C20CCF8147004D10F9BCCF86D
:1083E4000470CCF81830002719492A018B1841F879
:1083F4000280159A28465A609F605E732246694639
:1084040002F0A4FA384605B0BDE8F08F00212046FA
:108414002CF00CFD1023A3700323E370BAF1000FBA
:10842400AAD1DBB243F03003A5E70B48EBE70B48D6
:10843400E9E70B48E7E7B8F1000FD4D19CF8023024
:1084440068F304138CF80230CDE700BF2024002029
:10845400A022002020230020028000F0018000F0F0
:10846400078000F038B5104B05461B78BBB1C0B18E
:1084740002F0F7F800230D4901EB0312147B3CB919
:108484002B6001231460137302F0F1F8204638BD09
:108494000133082BF0D102F0EAF80548F7E7054864
:1084A400F5E70548F3E700BF20240020A0220020C0
:1084B400048000F0028000F0018000F038B502F082
:1084C400D0F8002305460A4AD1180C7B5CB9103356
:1084D400802BF9D102F0ECF9064B28461C7002F00F
:1084E400C6F8204638BD284602F0C1F80248F9E72C
:1084F400A022002020240020058000F00D4B10B5A0
:108504001B78044693B1072812D802F0AAF80A4B44
:1085140003EB04131A7B2AB100241C7302F0A7F89E
:10852400204610BD02F0A3F80448FAE70448F8E72F
:108534000448F6E720240020A0220020068000F052
:10854400028000F0018000F0164B13B51868002378
:1085540001908DF8043002F084F8134B1C7824B198
:1085640002F085F8114802B010BD01221A7002F021
:108574007EF80F4B1C731C7783F82C4083F83C4027
:1085840083F84C4083F85C4083F86C4083F87C406B
:1085940004230DEB03008DF8073002F0ADF92046FB
:1085A400E1E700BF907C030020240020038000F05A
:1085B400A022002010B588B00E9C009207940D9C58
:1085C400024606949DF8304005940B9C04949DF853
:1085D400284003940024CDE9013420460B4621466B
:1085E400FFF780FE08B010BD10B588B00E9C009255
:1085F40007940D9C024606949DF8304005940B9C0C
:1086040004949DF8284003940024CDE901342046C5
:108614000B460121FFF766FE08B010BD08B50A4BF2
:108624001B785BB107280BD8084B03EB00131B7BAB
:1086340043B1002102F050F9002008BD0448FCE7D2
:108644000448FAE70448F8E720240020A022002088
:10865400028000F0018000F0078000F008B50A4BAA
:108664001B785BB107280BD8084B03EB00131B7B6B
:1086740043B1012102F030F9002008BD0448FCE7B1
:108684000448FAE70448F8E720240020A022002048
:10869400028000F0018000F0078000F008B50A4B6A
:1086A4001B7853B107280AD8084B03EB00131B7B34
:1086B4003BB102F09BF9002008BD0548FCE70548E2
:1086C400FAE70548F8E700BF20240020A022002094
:1086D400028000F0018000F0078000F00D4B1B7851
:1086E40093B1072812D889B10B4B03EB00131B7B02
:1086F40073B10A4BDA6A012303FA00F010401ABF7F
:1087040000200B7008707047054870470548704793
:108714000548704720240020A022002000000440C7
:10872400028000F0018000F0078000F00B4B10B5D0
:108734001B780C4663B107280CD859B1084B03EBDE
:1087440000131B7B43B102F063F92060002010BDCD
:108754000448FCE70448FAE70448F8E7202400202A
:10876400A0220020028000F0018000F0078000F0C9
:108774002DE9F843174B1F6D5B6D1F4000D5FEE7D5
:1087840001260025144CDFF85480DFF8549037425A
:1087940017D02368C8F800609BB1A16862680131F2
:1087A400A16028469847637B012B0AD148B909EB9D
:1087B4004513197B1A7F60F3410160F34102197379
:1087C4001A770135082D4FEA460604F11004DED16C
:1087D400BDE8F88300000440A0220020502004409B
:1087E4002023002070B504460125084E04B970BD4D
:1087F40094FAA4F0B0FA80F005FA00F324EA030432
:1088040056F82030002BF1D09847EFE724240020BD
:108814004FF00072044BC3F880211A604FF080625D
:10882400C3F880211A60704700E100E038B50446BF
:108834000D4601F016FF034B43F82450BDE83840C1
:1088440001F015BF24240020084BD3F82404D3F8E6
:108854002024104042F2204220F42A5020F02A0022
:108864004004400C9850FFF7BDBF00BF00C0034058
:10887400084BD3F82404D3F82024104042F22042B9
:1088840020F4AA4020F055000004000C9850FFF793
:10889400A9BF00BF00C003404FF090439A6A12077B
:1088A400FCD4186A704700002DE9F84F4FF0000A15
:1088B40080464FF000094FF0010B254C04F1A00550
:1088C400237F84F81DA06BB1D4E90023994508BF28
:1088D4009045104619460AD2B2EB080063EB090131
:1088E400C4E900012834AC42EAD1BDE8F88FE37F43
:1088F40033B92377A369002BF4D084F81DB0F1E7D2
:10890400B8EB0000D4E9026769EB010132463B464B
:108914002CF0B0F8B01A67EB03012369C4E9000135
:10892400002B62690BDD13441D2B6361E2D9461CE5
:1089340041F100071E3BC4E900676361DAE7D31A1B
:108944001D2B6361D6D910F1FF3641F1FF37F1E7F2
:108954007824002038B50025064C637F1BB1A36939
:10896400216A284698470135042D04F12804F4D1DE
:1089740038BD00BF782400204FF0904293695269BB
:108984001340DB0706D50122034B1A60034A136820
:1089940001331360704700BF1420004818250020DD
:1089A40000214FF0FF324FF0FF3370B5174E7418AB
:1089B400257F3DB1D4E900459D4208BF94423CBFA8
:1089C40022462B462831A029F1D1002410490C70ED
:1089D4005C1C08BFB2F1FF3F16D008250D4C206087
:1089E4000D4C256000256FF064049D4208BF94423D
:1089F40038BF22464FF0904302441A6401220A70A1
:108A04009A6942F008029A6170BD00BF7824002080
:108A14006C24002068240020142000480F4B70B5FB
:108A24001B780546BBB101F01CFE282600230C4927
:108A340006FB0312947F14B935B90A4C07E00133DD
:108A4400042BF5D1084C02E0012191772B6001F051
:108A54000EFE204670BD054CFBE700BF6D240020D0
:108A640078240020041000F0011000F0061000F03B
:108A740070B51E4E3578002D35D14FF09044082145
:108A84001B2001F03DFC1A48057102F029F8194930
:108A9400012002F00BF81F22A369294623F01F03CB
:108AA400A361154B15481A604FF48062144B25627C
:108AB400C3F880211A60A369A02243F00103A361D3
:108AC4002CF0B4F90F4B1D700F4B1D700F4B1D6034
:108AD4000F4B1D600F4B1D6001233370636813B18E
:108AE400A36A002BFAD1002070BD00BF6D240020C2
:108AF400801C0020861C00201420004878240020BC
:108B040000E100E0642400206C2400207024002094
:108B1400182500201C2500202DE9F74F9346674AAD
:108B2400804612780E461C46002A00F0C2800328B4
:108B340000F2C1804FF0280A01F093FD604A074615
:108B44000AFB082A9AF81E10914629B901F08FFDF4
:108B54005C4803B0BDE8F08FBBF1000F08D114B13D
:108B64000C994046A047384601F081FD0020F0E70B
:108B7400FFF792FE4FF4004C054600214FF4FA70C3
:108B8400CAF818404FF47A720023ECFB0B012BF067
:108B940071FF0A4603461446012ECAE902344AD13B
:108BA4004FF47A7303FB0BFB1E2303FB10B00F235C
:108BB400CAF81000CAF814302823012203FB0893D2
:108BC400D3E9020110F1010A1A7741F1000B0C9A62
:108BD400C3E900ABDE771A623B4B1B78002BC2D192
:108BE4003A4C3B4E2368019601331EBF2368013380
:108BF4002360337833BB0822364B50461D60364B16
:108C04001A6000236FF064025B4508BF524538BF09
:108C140010464FF09043284418649A6942F00802C1
:108C24009A610123019A13702368002B9BD0236857
:108C3400013B236097E710F1FF3042F1FF31CAE9AD
:108C44000201B9E72368012BEED128234FF0000A73
:108C54004FF0904B03FB08931E4E83F81CA0DBF8E7
:108C6400183023F00803CBF818303068281AFFF7BF
:108C74001BFEFFF76FFEBAF1000F04D12823012079
:108C840003FB089318772846FFF78AFEFFF704FED4
:108C94000546104B019A1868DBF84030A5EB000C30
:108CA4001B1A10780AF1010A0028BDD09C45D6D2BF
:108CB400BAE70A484DE70A484BE700BF6D24002095
:108CC40078240020031000F0642400207024002085
:108CD4006C2400206824002014200048061000F0B2
:108CE400021000F02DE9F843284B05461B780C468A
:108CF400002B44D0032844D8002944D001F0B1FC0F
:108D04002822234B014602FB05339A7F22B901F046
:108D1400AEFC2048BDE8F8831A7F1AB901F0A7FC1D
:108D24001D48F7E7D3E90067FFF7B6FD1B4B05467F
:108D34000846D3F8008001F09AFC0021A5EB080056
:108D44008F4208BF864215D3361A67EB0107B04637
:108D5400B9464FF47A75A8FB052305FB093312F5D0
:108D640080404FEAD03243F1000142EA414222609E
:108D74000020CFE74FF000084FF00009E9E708486A
:108D8400C8E70848C6E70848C4E700BF6D240020C8
:108D940078240020031000F0051000F0682400205F
:108DA400061000F0021000F0041000F070B501F09D
:108DB40058FC064608490C68FFF76EFD0546FFF7A8
:108DC400DBFD0B689C42F6D1304601F050FC0022DA
:108DD400501944F1000170BD182500202DE91048F8
:108DE4004FF47A74A0FB04BC04FB01CC1BF5804255
:108DF4004CF10003D00B40EA4340BDE8108800006A
:108E04002DE9F8434FF0904401F02BFCA36962690B
:108E140005461340194A23F009011B07116025D5A3
:108E240001231749174E0B70FFF736FD0746884696
:108E3400DFF85490A36923F00803A3613068381A5B
:108E4400FFF732FDFFF786FD3846FFF7A9FDFFF770
:108E540023FD3268236C811A9B1A99F80020074677
:108E64000AB19942E6D2002388F80030FFF784FD66
:108E74002846BDE8F84301F0FABB00BF14200048BF
:108E840064240020682400206C2400200022114661
:108E94002D48F0B503682D4D54592CB11E68AC18FB
:108EA400002E3DD1234601210832282AF4D101B1F4
:108EB4000360002214462649264E0B6895592DB1AD
:108EC4001F68B518002F32D12B4601240832282AF6
:108ED400F4D104B10B6000680368002B2FD04FF06D
:108EE4004022936F007923F0FF7323F4803343EA25
:108EF40000439367184B4FF0004209681A600B68EF
:108F0400FBB14FF04022936F097923F4FF7323F0F0
:108F140001030B439367104B4FF080421A60F0BD7E
:108F24001E792779B74284BF23460121BCE71F7904
:108F340095F804C0BC453CBF2B460124C6E7074B4B
:108F4400D9E7064BE8E700BF24250020342500209C
:108F5400282500205C2500206850004068600040FF
:108F640010B5012228240F4B00211A700E48224606
:108F74002BF05CFF224600210C482BF057FF0C4BD2
:108F84000C4A13600C4A13604FF040430B4A1360C1
:108F9400536020220A4BC3F880211A60FFF776FF42
:108FA400002010BD20250020342500205C25002051
:108FB4002C25002024250020282500206460004062
:108FC40000E100E04FF04023D3F888006FF4887389
:108FD400C0F38800184440B2704700004FF04022AC
:108FE40008B5936E526E134013F0804111D0114BAB
:108FF4001B681A682AB1002119605960FFF7E2FF63
:1090040090474FF080420C4B1A60BDE80840FFF7D0
:109014003DBF002BF9DA094B1B681A682AB11960A5
:109024005960FFF7CFFF01219047034B4FF00042F7
:10903400EAE700BF282500206460004024250020C2
:10904400FFF7CCBF012203685A619A69D207FCD5A5
:1090540041F2AC52042103795B0103F1804303F52F
:10906400703399507047000038B141B1013AB2F5FC
:10907400006F044838BF0020704703487047014818
:10908400704700BF037000F0027000F038B504466A
:109094000D4601F0E6FAA28892B222B92A6001F0E4
:1090A400E6FA064838BD1422638802FB03430833FA
:1090B4002B6001F0DCFA0020F4E700BF0B7000F035
:1090C40038B504460D4601F0CCFAA3889BB223B907
:1090D4002B6001F0CCFA0C4838BD14226388E18877
:1090E40002FB034308332B6063885A1C92FBF1F3A1
:1090F40001FB13239BB26380A388013B9BB2A38033
:1091040001F0B5FA0020E7E70B7000F090F8313079
:10911400022B0BD13022437F90F821005A43044B99
:109124009B5823FA00F000F00100704700207047BC
:1091340014C00340002313B51C4A52F8234094F88A
:10914400211081420ED00133042BF6D102B010BDA0
:109154000028FBD19DF80730002BF7D0A068FFF75B
:109164005DFAF3E794F83130022BEFD12046FFF794
:10917400CDFF637E2076022BE8D194F82E3003F0E5
:10918400FF02002BE2D102A901F8012DA068FFF72C
:10919400A5FA237E1BB194F82F30002BD8D00023DE
:1091A400A06884F82F30FFF759FACFE78425002010
:1091B400012230B590F8324087B080F82C207CB979
:1091C400094D0368CDE9024504904C682433CDE988
:1091D40000240A684169C068FFF706FA07B030BD89
:1091E400002380F82C30F9E7A19A0000012330B560
:1091F40090F8324087B080F82D307CB9094D026870
:10920400CDE9024504904C683C32CDE900340B684A
:1092140001698068FFF7CEF907B030BD002380F8FC
:109224002D30F9E72D920000F7B5906A01A9144694
:10923400FFF72CFF144B984220D00025019B1D61A1
:109244009D6001F00EFA019A0746D66826B1D2E96C
:10925400002329462046B04701A9A06AFFF730FF42
:10926400A06A83889BB263B101A9FFF70FFF01993C
:109274002046FFF7BBFF384601F0F9F9012003B09F
:10928400F0BD84F82D30F6E70B7000F0F8B5044615
:1092940017460D4601F0E5F9A388E28806469A428E
:1092A40005D800233B6001F0E2F91648F8BD14220A
:1092B400238805F1100C02FB034308332A4603CA32
:1092C400624518605960154603F10803F6D1106829
:1092D400142218602388E18802FB034308333B60AF
:1092E400238830465A1C92FBF1F301FB13239BB2F3
:1092F4002380A38801339BB2A38001F0B8F9002036
:10930400D4E700BF0A7000F02DE9F3410D4604468E
:10931400002800F0868001F0A4F9012D064637D11B
:10932400A36A9B889BB2002B39D0A068FFF7B6F9DB
:109334000023A06A84F82D3083889BB2002B34D19B
:10934400226893699B04FCD5023D012D1BD8E0687B
:10935400FFF7A4F90023606A84F82C3083889BB259
:10936400002B41D194F83130032B0CD042F2AC5293
:10937400042123795B0103F1804303F57033995091
:10938400022223685A61304601F071F9002009E095
:10939400022D48D1636A9B889BB2002BD4D101F083
:1093A40066F9264802B0BDE8F08101A9FFF76EFE18
:1093B4000199A0680831FFF7B9F9214F019B1F619A
:1093C400A06A83889BB2002BBAD001A9FFF778FE6C
:1093D400019BD3F80C80B8F1000FF1D09B680022F8
:1093E40039462046C047EBE76946FFF74FFE009930
:1093F400E0680831FFF79AF9114F009B1F61606A1A
:1094040083889BB2002BADD06946FFF759FE009BC1
:10941400DD68002DF3D09B68002239462046A8471A
:10942400EDE70848BEE7032D8ED1A36A9B889BB263
:10943400002B7FF47AAF636A73E700BF087000F013
:10944400097000F0027000F0036898697047436A7D
:109454009888C0B270472DE9F34198460023054629
:10946400406A0E4684881746A4B2CDE900333CB165
:109474006946FFF70BFE01A90446E868FFF756F9B1
:10948400009969B164B94868019BC01A3860C8F88A
:1094940000300B6833602B68986902B0BDE8F08136
:1094A4000021C8F8001039603160F4E7836A9888B5
:1094B400C0B270472DE9F341984600230546806AFF
:1094C4000E4684881746A4B2CDE900333CB1694600
:1094D400FFF7DCFD01A90446A868FFF727F9009906
:1094E40069B164B94868019BC01A3860C8F8003093
:1094F4000B6833602B68986902B0BDE8F0810021E5
:10950400C8F8001039603160F4E7007E70472DE937
:10951400F04104460F469046FFF7A6FD0546002895
:1095240039D1152001F0C2F80646A26A93889BB28D
:1095340013B194F82E308BB323689E6916F002069B
:109544000ED104225A619A699207FCD541F2AC52B9
:10955400102123795B0103F1804303F570339950A3
:10956400012384F8303094F8323033B9B844474595
:10957400206818D183699B06FCD566B942F2AC52C7
:10958400102123795B0103F1804303F57033995073
:10959400082223685A612846BDE8F081002EC5D010
:1095A400FFF7E6F8C1E717F8011B01F017FDDEE746
:1095B40010B5044680B190F82E302BB9FFF7A6FD04
:1095C40010B9A068FFF72AF8002094F82E30013370
:1095D400DBB284F82E3010BD0048FCE7027000F0C6
:1095E40010B50446A0B190F82E309BB190F82E30FF
:1095F400012B05D1FFF78AFD10B9A068FFF72EF8FB
:10960400002094F82E30013BDBB284F82E3010BDDC
:109614000148FCE70148FAE7027000F0057000F029
:1096240037B590F831500446022D1ED1012190F82F
:109634002220457E837F01FA02F23020154925B9A4
:1096440000FB031342F2100105E0012D07D100FBDA
:10965400031341F210015A50002003B030BD247EA0
:1096640000FB0313002CF4D1ECE7012DF4D1037EAD
:1096740073B911238DF80730FFF79AFF2A460DF1CD
:1096840007012046FFF743FF2046FFF7A9FFE3E762
:109694001323EFE700C00340F0B504468BB09E4FA0
:1096A40003AE0D460FCF0FC697E8070086E8070004
:1096B4001CB99A4C20460BB0F0BD0DB9984CF9E793
:1096C4003422002120462BF0B1FB9649964A0B78B0
:1096D400002B40F0D3800120C2E90033C2E90233F9
:1096E400087042F823402B7D286884F83130002329
:1096F400206084F832302B7B23718C4B984240F0ED
:10970400CA80202384F82330894B23614FF48023BB
:1097140000266361D5E9072362621680568096802D
:1097240084F82C60A3621E805E809E806B6803A90F
:109734000593EB8984F82D60ADF81C302B8A84F8EE
:109744002F60ADF81A30AB7C8DF80C608DF81830B2
:10975400EB7C8DF81E3005238DF8193001F0C6FB23
:1097640014212A7B734B287A03EB4217C7F8AC15F4
:10977400A97A2E3240EA014C03EB4213C3F804C029
:109784006A7AEB7A42EA034CC7F8BCC5E17784F8FD
:1097940020306B7DE07622776377AB7D042284F8FA
:1097A4002130EB7DA3772B7E84F82230012301F056
:1097B4003DF80123022294F82010207F01F036F8AE
:1097C40094F83130022B7DD13346012294F82110D4
:1097D400607F01F02BF83346042294F82210A07F16
:1097E40001F024F8012394F82120607F1146CDE98B
:1097F400003300F0D5FF00F034FF2E7D0746032E22
:1098040071D141F2AC5202212B7B04205B0103F1A4
:10981400804303F57033995041F25C022968885003
:10982400297EEA7D42EA014241F2B8515A50A97DAB
:109834006A7D42EA014241F2B4515A504FF0FF327C
:1098440042F248032868C2502B7D032B0CBF05212C
:10985400042101F005FB4FF440622B685A61FEF7C6
:1098640073FE002104F10800FEF7FCFD0146002808
:109874004AD0314C384600F0FAFE1BE7002352F878
:10988400231000293FF42DAF8C423FF42AAF01335B
:10989400042BF4D10DE7294B984207D1212384F8F6
:1098A4002330274B23614FF4A02331E7254B984203
:1098B4007FF404AF222384F82330234B23614FF435
:1098C400C02325E7032B96D1334694F82110607FFB
:1098D400012200F0ABFF3346042294F82210A07F4B
:1098E40000F0A4FF87E7022EA8D194F821001749BD
:1098F400FEF79CFFFEF78CFF00236676A3762376A3
:109904002046FFF78DFE99E704F10C00FEF7AAFD4F
:1099140004460028AED0ACE7947C0300027000F04B
:10992400037000F094250020842500200080054069
:109934000200040000C003400E7000F000C00540A7
:1099440002000500000006400200060039910000F4
:1099540090F83130032B05D00229417618BF0176E7
:10996400FFF75EBE00487047057000F013B504466B
:10997400002862D00321FFF7C7FC00212046FFF72F
:10998400E7FF0023E17F1A46E07E00F04FFF00234B
:1099940094F820101A46207F00F048FF94F83130E4
:1099A400022B39D1002394F821101A46607F00F06D
:1099B4003DFF002394F822101A46A07F00F036FFE2
:1099C4000021012394F82120607FCDE90031114664
:1099D40000F0E6FE94F8323013B90A2223685A6183
:1099E40094F83130032B04D0002194F82100FEF7C1
:1099F4001DFFA068FEF782FDE068FEF77FFDFEF71D
:109A04005DFD0020636A188058809880A36A1880DE
:109A14005880988002B010BD032BDBD1002394F84A
:109A240021101A46607F00F001FF002394F82210F1
:109A34001A46A07F00F0FAFECCE70148EAE700BF2F
:109A4400027000F0F0B587B004461646FFF70CFB31
:109A54000546E8B90493104BCDE901166A4601A9FD
:109A6400606A03960593FFF711FC054680B994F8E4
:109A74002C306BB92046FFF7E5FA0099FFF798FB05
:109A840094F83130032B03D025762046FFF7C8FD28
:109A9400284607B0F0BD00BF017000F073B5506AEE
:109AA40001A91446FFF7F2FA2F4B984230D094F8EC
:109AB4003200019B002839D12268916C11F40071A5
:109AC40029D02A499860196142F248034FF4007181
:109AD400D15000F0C6FD01990646CD6835B14A68FB
:109AE4008B682046D31A0A680969A84701A9606AE5
:109AF400FFF7E6FA606A8588ADB2DDB101A9FFF728
:109B0400C5FA01992046FFF753FB304600F0AFFD3C
:109B1400012002B070BD906CC00507D5144899604F
:109B240018614FF4807142F24803D1E700221A61B0
:109B34009A60CEE7012320462376FFF771FD94F85F
:109B4400313084F82C50032BDFD042F2AC52042184
:109B540023795B0103F1804303F5703399500222AA
:109B640023685A61D1E700BF0B7000F00D7000F05C
:109B74000C7000F0F0B587B004461646FFF774FA8F
:109B8400054600BB0493114BCDE901166A4601A9B1
:109B9400A06A03960593FFF779FB054698B994F8F4
:109BA4002D3083B900F05DFDA36A06469B889BB205
:109BB40033B100992046FFF719FB012384F83030B4
:109BC400304600F054FD284607B0F0BD017000F0A7
:109BD40070B588B00E22002104A82BF027F90123C8
:109BE4000D22002168468DF810302BF01FF9022356
:109BF400244C6A46002120468DF8063001F094F882
:109C0400236B4FF6FF73204EE36100233546ADF816
:109C1400123004A9204601F03AF8062000F04AFA6E
:109C2400BDF812300133B0FBF3F09BB2B3F5806F93
